S00E0000534E414B45342E7372656370
S113000043C100005EC100005CC100005AC1000091
S113001058C1000056C1000054C1000052C1000084
S113002050C100004CC200004CC100004AC1000095
S113003048C1000046C1000044C1000042C10000A4
S113004040C100003EC100003CC100003AC10000B4
S113005038C1000036C1000034C1000032C10000C4
S113006030C100002EC100002CC100002AC10000D4
S113007028C1000026C1000024C1000022C10000E4
S113008020C100001EC100001CC1000000000000CF
S113009000000000000080C0C0606040C0C040009C
S11300A000C0C0C0C0C0C0000000C0C0C0C00000CC
S11300B00000C0C0C0C0C0C0C0C000000000C0C0BC
S11300C0C0C0C0C00000C0C0C0C0C0000080C0C06C
S11300D0C0C0C0C0C0C0C0C04000000000000000DC
S11300E00000000000000080C0C70F1F3FFCFCF8A8
S11300F030008080F0FE0F030F7FFFFFF8F0FC0F4D
S1130100018080E0F01C1E1310F8FFFFFF80000048
S113011080F0FEFFFF070198FCFEFFE381000080F2
S1130120E0FCFFFF9F9B9880C0C10101000000001C
S113013000000000000000000000000303010303AE
S11301400303010000000303030300000000030392
S1130150030300000003030303000002030303037B
S11301600300000303030303030000030303030367
S1130170010002030303030303030303030000005A
S1130180000000000000000000000000000000006B
S11301903C00201000F000000000000000000000FF
S11301A0000000000000000000000000000000004B
S11301B0000000000000000000000000000000003B
S11301C0000000000000000000000000000000002B
S11301D0000000000000000000000000000000001B
S11301E000000000C04000C00000800080800000CB
S11301F04000800000008000000000C04000C000FB
S113020000C000800000000080000080808080002A
S1130210800000000000000000000000000000005A
S113022000000000000000000000000000000000CA
S113023000000000000000020300020100020300AD
S1130240030000030002000003000000000002039A
S1130250000000000300000300020000030000038C
S11302600000030003000000000000000000000084
S1130270000000000000000000000000000000007A
S113028000000000C00F010011241FBECFEFD0E416
S1130290DEBFCDBF11E0A0E0B1E0E0E6FEE000E0AB
S11302A00BBF02C007900D92AE32B107D9F727E019
S11302B0AEE2B1E001C01D92AE34B207E1F792D0D4
S11302C0CDC59ECE11B887E880937A0080E48093F0
S11302D07C0008958770806480937C00EAE7F0E0F6
S11302E0808180648083808184FFFDCFEAE7F0E031
S11302F0808180618083209178008091790090E0F2
S1130300982F8827820F911D0895CF93DF93C1E022
S1130310D0E041E0BE0180E090E056D141E0BE0172
S113032082E590E051D12196CC32D10591F7C0E01D
S1130330D0E041E061E070E0CE0146D141E06CE202
S113034070E0CE0141D12196C335D10591F7DF91FB
S1130350CF91089580912F0390913003803223E050
S113036092077CF0209134033091350320593140B9
S1130370293C3105C0F480E0C2D222E0FC0127838D
S11303800895893C91057CF4209134033091350320
S113039020593140293C310530F480E0B0D223E0CB
S11303A0FC01278308952091340330913503293CBF
S11303B031055CF480599140893C910590F480E0CA
S11303C09ED221E0FC0127830895203233404CF073
S11303D080599140893C910520F480E090D2FC0141
S11303E0178208958EE48093B300E0EBF0E08081FF
S11303F082608083E1EBF0E080818760808382E02B
S1130400809370008FEF87B918B88AB91BB8EED300
S113041090D0C5D0CBD123D22FEF8DE399E42150D6
S113042080409040E1F700C00000B9D0EFEFF4E362
S11304302CE0E150F0402040E1F700C00000809142
S11304404C0759D20CD2789481E0809333033ADF7D
S1130450CAE4D7E080E03EDF909335038093340311
S113046081E038DF9093300380932F0382E032DF02
S113047090932B0380932A03809136039091370342
S1130480892B41F767DF41DF80E039D2865F9B4FDC
S1130490FC0180819181892B59F080E030D2865F04
S11304A09B4FFC010081118180E029D2F80109955C
S11304B0898190E09093370380933603CBCF1F92CA
S11304C00F920FB60F9211248F939F93809136034E
S11304D090913703009729F0019790933703809305
S11304E036039F918F910F900FBE0F901F90189518
S11304F02998662311F02B9A15C02B9813C0AC01D0
S1130500022E02C0559547950A94E2F740FF02C0B7
S11305102C9A01C02C982D9A2D982150310978F7E6
S1130520299A089527E030E090E0E9CF60E0E0CF39
S11305300895CF93DF93219A229A239A249A259A95
S11305402A9A299A83EC99E00197F1F700C00000F8
S11305502A988BE594E40197F1F700C000002A9AE9
S1130560299881E2E3DF83E1E1DF86E0DFDF82ECEB
S1130570DDDF80E2DBDF89E0D9DF80E8D7DF80E4FC
S1130580D5DFC8EFD1E061E080E0B2DF2197D9F791
S113059088E0CCDF8CE0CADFDF91CF91089580E85A
S11305A0C5DF80E4C3DF1092270310922603109264
S11305B0290310922803EEE2F1E086E293E011921F
S11305C0E817F907E1F70895FB01F695E795F69525
S11305D0E795F695E79554E55E9F90015F9F300D92
S11305E01124820F931F442381F0FC01E25DFE4F2E
S11305F06770772781E090E002C0880F991F6A95A1
S1130600E2F79081892B80830895FC01E25DFE4F1F
S11306106770772781E090E002C0880F991F6A9580
S1130620E2F7809590818923808308952F923F92E9
S11306304F925F926F927F928F929F92AF92BF92EE
S1130640CF92DF92EF92FF920F931F93CF93DF939A
S1130650CDB7DEB727970FB6F894DEBF0FBECDBF78
S11306604983262F30E03D832C83390133E0631A1C
S113067071080C811D81E82EF12C670183E0C80EFE
S1130680D11C58013E2C2F2C12C045013E822F82D2
S113069041E0B801C20198DF9FEF491A590AC41416
S11306A0D50499F7015011096016710621F0EA8208
S11306B0FB822701EACF49816C817D818A819B81FC
S11306C083DF0E811F810F5F1F4F49816C817D8104
S11306D0C8017ADF2E813F81215031093F832E8367
S11306E049816C817D81C9016FDF750131E0E31AB5
S11306F0F1084981B7018A819B8166DF4981B7018D
S11307008E819F8161DF4981B701C8015DDF8FEF71
S1130710881A980A4981B4018A819B8155DF4981ED
S1130720B4018E819F8150DF4981B401C8014CDF3F
S113073027960FB6F894DEBF0FBECDBFDF91CF91E1
S11307401F910F91FF90EF90DF90CF90BF90AF90EB
S11307509F908F907F906F905F904F903F902F90DD
S11307600895FF920F931F93CF93DF93F42EC62F18
S1130770D0E0082F10E0BE01C801019625DF4F2DFF
S1130780BE01C801019720DFBE01615071094F2DE0
S1130790C8011ADFBE016F5F7F4F4F2DC80114DF00
S11307A0DF91CF911F910F91FF900895AF92BF9267
S11307B0CF92DF92EF92FF920F931F93CF93DF9329
S11307C000E010E00F2EF8E2AF2EF3E0BF2EF02D84
S11307D00F2EF6E2CF2EF3E0DF2EF02D2EC0F70120
S11307E0849190E00C2E02C0959587950A94E2F7C7
S11307F080FF0DC0F501608171816C0F7D1FF601D2
S11308008081918141E0800F911FDEDE0CC0F501F3
S1130810608171816C0F7D1FF6018081918140E0C0
S1130820800F911FD1DE2196C830D105C1F60F5F2C
S11308301F4F083FF1E01F0739F0C0E0D0E0C801C6
S113084084579F4F7C01CBCFDF91CF911F910F91A4
S1130850FF90EF90DF90CF90BF90AF9008950F93EB
S11308601F93CF93DF9380E861DE80E45FDECEE206
S1130870D1E006E213E061E089913ADEC017D107C6
S1130880D1F7DF91CF911F910F910895CF93DF930B
S1130890EAE3F3E080914B07808382E09AE2938756
S11308A082878AE0808781E0878384E395E0909360
S11308B0450780934407118611822DD2C8E3D3E003
S11308C02EE030E040E050E0A0D1FB01EC5FFE4FB1
S11308D08081888320D22BE130E040E050E095D144
S11308E0FB01EE5EFE4F8081898341E0688139DF40
S11308F0DF91CF91089580934607C8CF0895CF9391
S1130900C82F833009F4C2DF2CE034E0C29FC00159
S1130910C39F900D1124865C9C4FCF910895CF9373
S1130920DF93DC0119969C91199718968C9118976E
S11309308230D0F0292F281B822F70E0E92FF0E0BD
S11309403596EE0FFF1FEA0FFB1F20813181421302
S113095006C0C32F20E0D22F6C177D0739F09150C9
S11309608913ECCF80E003C080E001C081E0DF9117
S1130970CF9108956F927F928F929F92AF92BF9280
S1130980CF92DF92EF92FF920F931F93CF93DF9357
S11309908C018091380386133AC080913903841303
S11309A036C00F2EFEE08F2E912CA12CB12CF02DF1
S11309B00F2EFBE1CF2ED12CE12CF12CF02DC8E32E
S11309C0D3E0A9D1A501940120D1FB01EC5FFE4F36
S11309D07080A1D1A701960118D1FB01EE5EFE4FF4
S11309E060808881781203C08981681651F3462D8E
S11309F0672DC80194DF8111E4CFE8E3F3E070824E
S1130A006182F80181818F5F818382E00EC08DEF66
S1130A10860F8A3238F48EEF840F8F3428F4C8019D
S1130A207EDF03C081E001C081E0DF91CF911F919F
S1130A300F91FF90EF90DF90CF90BF90AF909F9079
S1130A408F907F906F90089543E050E067E477E0E3
S1130A508AE497E0BDC1089543E050E067E477E09D
S1130A608AE497E0C5C10895EF92FF920F931F9314
S1130A70CF93DF938C01FC01C185EC2FF0E0359618
S1130A80EE0FFF1FE80FF91F90818181F92ED82FF7
S1130A90F80127812130D9F028F0223069F1233080
S1130AA0C9F145C080912E0382608B7F877F80933C
S1130AB02E0380FD06C00F2EFDEFFF2EF02DF90E44
S1130AC036C00F2EF3E0FF2EF02DF90E30C08091CA
S1130AD02E0381608B7F877F80932E0381FD06C068
S1130AE00F2EF3E0FF2EF02DF90E21C00F2EFDEF97
S1130AF0FF2EF02DF90E1BC090912E039C7F946065
S1130B0090932E0393FD03C0DDEFD80F10C0D3E004
S1130B10D80F0DC090912E039C7F986090932E0364
S1130B2092FD03C0D3E0D80F02C0DDEFD80F4F2DE4
S1130B306D2FC8011FDFE82EF1E08F1317C010924C
S1130B404D07F80181818150818390914A0798175C
S1130B501CF480934A0780DF80914D078823F1F3CA
S1130B6010924D07E6DC1BDD91DEF6CFCF5FF80176
S1130B70C1878F2D90E09D2BEC2FF0E03596EE0F82
S1130B80FF1FE00FF11FF082918341E0692F4EDDDA
S1130B90F8018085EC2FE81BF0E03596EE0FFF1F7F
S1130BA0E00FF11F618140E0808140DDF2E0EF124F
S1130BB004C0F80180858F5F8087E8E3F3E041E0BB
S1130BC060818181CEDD4BDEDF91CF911F910F914A
S1130BD0FF90EF90089543E050E064E872E08AE407
S1130BE097E0EDC00895F7DF37CF08952DDF8091AA
S1130BF04A078F3F49F480914B078F3F29F4809136
S1130C004C078F3F09F4EFCF0895052E97FB16F498
S1130C1000940FD057FD05D014D007FC02D046F441
S1130C2008C050954095309521953F4F4F4F5F4FE9
S1130C30089590958095709561957F4F8F4F9F4F44
S1130C400895A1E21A2EAA1BBB1BFD010DC0AA1F09
S1130C50BB1FEE1FFF1FA217B307E407F50720F021
S1130C60A21BB30BE40BF50B661F771F881F991F9C
S1130C701A9469F760957095809590959B01AC01E5
S1130C80BD01CF0108958F929F92AF92BF92CF92F0
S1130C90DF92EF92FF92CF93DF93EC016881798129
S1130CA08A819B81611571058105910521F464E2B6
S1130CB079ED8BE597E02DE133EF41E050E0A5DFDE
S1130CC049015A019B01AC01A7EAB1E4A8D06B0128
S1130CD07C01ACEEB4EFA5019401ADD0DC01CB01F5
S1130CE08C0D9D1DAE1DBF1DB7FF03C00197A1094B
S1130CF0B04888839983AA83BB83BC01CD019F77C5
S1130D00DF91CF91FF90EF90DF90CF90BF90AF90A5
S1130D109F908F9008958F929F92AF92BF92CF929F
S1130D20DF92EF92FF926091000170910101809136
S1130D30020190910301611571058105910521F46A
S1130D4064E279ED8BE597E02DE133EF41E050E08B
S1130D505CDF49015A019B01AC01A7EAB1E45FD011
S1130D606B017C01ACEEB4EFA501940164D0DC010D
S1130D70CB018C0D9D1DAE1DBF1DB7FF03C0019798
S1130D80A109B0488093000190930101A09302014E
S1130D90B0930301BC01CD019F77FF90EF90DF90EA
S1130DA0CF90BF90AF909F908F9008956093000173
S1130DB07093010180930201909303010895FB0154
S1130DC0DC0102C005900D9241505040D8F70895BF
S1130DD0DC01CB01FC01F999FECF06C0F2BDE1BDF7
S1130DE0F89A319600B40D9241505040B8F70895E6
S1130DF0DC01CB0102C02D9105D041505040D8F701
S1130E000895262FF999FECF1FBA92BD81BD20BD4A
S1130E100FB6F894FA9AF99A0FBE019608950FD076
S1130E20A59F900DB49F900DA49F800D911D11243A
S1130E300895B7FFF4CFF3DF821B930B0895A29FAD
S1130E40B001B39FC001A39F700D811D1124911D9A
S1130E50B29F700D811D1124911D0895F894FFCF48
S1130E60010000000306090C0F1215181B1E212493
S1130E70272A0205080B0E1114171A1D20232629F0
S1110E802C2F3235383B3E4144474A4D50003A
S9030000FC
